:04000000EAEF13F020
:100800000020494E464F20554C545241534F4E49BB
:10081000434F200044697374616E6369613A202517
:0F082000303364636D0041004400530055000005
:100830002B50800B346E2B502B24366E2AAE23EFB8
:1008400004F025EF04F026EF04F036803650D8B4DB
:100850002CEF04F02EEF04F043EF04F03628D8A478
:1008600034EF04F036EF04F03EEF04F0000E286E93
:10087000000E296E000E2A6E000E2B6E2A8E000EC0
:100880002B6E4BEF04F0000E286E000E296E000E4A
:100890002A6E000E2B6E2F50800B356E345035189B
:1008A000D8B455EF04F057EF04F058EF04F0348C4F
:1008B0002F502F24356E2EAE60EF04F062EF04F05F
:1008C00063EF04F035803550D8B469EF04F06BEF76
:1008D00004F080EF04F03528D8A471EF04F073EF32
:1008E00004F07BEF04F0000E2C6E000E2D6E000E57
:1008F0002E6E000E2F6E2E8E000E2F6E88EF04F0DF
:10090000000E2C6E000E2D6E000E2E6E000E2F6E41
:100910003650355CD8B08FEF04F091EF04F0B8EFAB
:1009200004F034AC96EF04F098EF04F09AEF04F082
:10093000800E341A36C037F035C036F037C035F087
:1009400028C037F02CC028F037C02CF029C037F071
:100950002DC029F037C02DF02AC037F02EC02AF064
:1009600037C02EF02BC037F02FC02BF037C02FF040
:10097000000E376E365035C030F0316A305E000EF2
:10098000315A31BECDEF04F0315009E11A0E305C1E
:10099000D8A0CDEF04F0CFEF04F006EF05F028501B
:1009A00029102A102B10D8A4D8EF04F0DBEF04F0A4
:1009B000010EDCEF04F0000E376E000E286E000E04
:1009C000296E000E2A6E000E2B6E35C036F00FEF2A
:1009D00005F037A0EEEF04F0F0EF04F0F6EF04F0CE
:1009E000D89037300109376EF8EF04F0D8903732DD
:1009F00028A0FDEF04F0FFEF04F000EF05F0378EC4
:100A00002B342B322A3229322832362A3550365CA2
:100A1000D8A00DEF05F00FEF05F0E9EF04F034BCBE
:100A200014EF05F016EF05F056EF05F03650D8A498
:100A30001CEF05F01EEF05F028EF05F0000E286E04
:100A4000000E296E000E2A6E000E2B6E77EF06F058
:100A50002C5028262D5029222E502A222F502B226E
:100A60002BA035EF05F037EF05F0E3EF05F037A0E9
:100A70003CEF05F03EEF05F044EF05F0D89037303D
:100A80000109376E46EF05F0D890373228A04BEFBA
:100A900005F04DEF05F04EEF05F0378E2B342B327D
:100AA0002A3229322832362AE3EF05F02C50285C0E
:100AB0002D5029582E502A582B50800A306E2F5016
:100AC000800A3058D8B067EF05F069EF05F094EF71
:100AD00005F028502C5C306E29502D58316E2A506C
:100AE0002E58326E2B502F58336EFF0E3024286E46
:100AF000FF0E3120296EFF0E32202A6EFF0E3320AA
:100B00002B6E800E341A376C3750D8A48AEF05F05C
:100B10008CEF05F09CEF05F0010E2826000E29222F
:100B20002A222B229CEF05F02C50285E2D50295AAA
:100B30002E502A5A2F502B5A285029102A102B1089
:100B4000D8A4A5EF05F0A7EF05F0DCEF05F03750CE
:100B5000D8A4ADEF05F0AFEF05F0DCEF05F0000E27
:100B6000286E000E296E000E2A6E000E2B6E77EF97
:100B700006F0D890283629362A362B3637AEC3EF02
:100B800005F0C5EF05F0C6EF05F0288037A0CBEFE4
:100B900005F0CDEF05F0D1EF05F0D8803736D3EF73
:100BA00005F0D89037363650D8B4D9EF05F0DBEFE2
:100BB00005F0DCEF05F036062AAEE1EF05F0E3EFD5
:100BC00005F0B9EF05F0000E356E37AEEAEF05F02F
:100BD000ECEF05F004EF06F037C030F07F0E301672
:100BE000D8B4F5EF05F0F7EF05F0FBEF05F0010ED7
:100BF000356E04EF06F028A000EF06F002EF06F0D5
:100C000004EF06F0F7EF05F03550D8B40AEF06F020
:100C10000CEF06F037EF06F0010E2826000E292211
:100C20002A222B222BA017EF06F019EF06F037EF40
:100C300006F028C030F029C031F02AC032F02BC0B5
:100C400033F03334333232323132303230C028F084
:100C500031C029F032C02AF033C02BF03628D8B486
:100C600034EF06F036EF06F037EF06F0362A362876
:100C7000D8B43DEF06F03FEF06F047EF06F03650F0
:100C8000D8A445EF06F047EF06F059EF06F0000E46
:100C9000286E000E296E000E2A6E000E2B6E365046
:100CA000D8A455EF06F057EF06F059EF06F0000E06
:100CB000346E36A05EEF06F060EF06F063EF06F0EC
:100CC0002A8E64EF06F02A9ED89036302B6E34AE12
:100CD0006CEF06F06EEF06F06FEF06F02B8E28C07B
:100CE00028F029C029F02AC02AF02BC02BF01200CE
:100CF0001250800B1F6E12501224266E11AE83EF1D
:100D000006F085EF06F086EF06F026802650D8B470
:100D10008CEF06F08EEF06F0A3EF06F02628D8A49D
:100D200094EF06F096EF06F09EEF06F0000E0F6EC1
:100D3000000E106E000E116E000E126E118E000E5F
:100D4000126EABEF06F0000E0F6E000E106E000E6E
:100D5000116E000E126E1650800B1F1A16501624BC
:100D6000276E15AEB6EF06F0B8EF06F0B9EF06F055
:100D700027802750D8B4BFEF06F0C1EF06F0D6EFBA
:100D800006F02728D8A4C7EF06F0C9EF06F0D1EF88
:100D900006F0000E136E000E146E000E156E000E9F
:100DA000166E158E000E166EDEEF06F0000E136E38
:100DB000000E146E000E156E000E166E13501410F9
:100DC00015101610D8A4E7EF06F0E9EF06F001EFD2
:100DD00007F0000E0F6E000E106E000E116E000E6A
:100DE000126E800E11127F0E12121F5012120FC0BF
:100DF0000FF010C010F011C011F012C012F044EF4B
:100E000008F02650D8A407EF07F009EF07F013EF1A
:100E100007F0000E0F6E000E106E000E116E000E29
:100E2000126E44EF08F0275026C017F0186A175EBC
:100E3000000E185A7F0E1724206E000E1820216E07
:100E40000FC01BF010C01CF011C01DF012C01EF02E
:100E5000000E0F6E000E106E000E116E000E126E60
:100E6000000E226E000E236E000E246E000E256E04
:100E7000000E276E74EF07F02750D8B442EF07F04A
:100E800044EF07F05BEF07F0D8901B361C361D3699
:100E90001E36D8900F3610361136123625AE53EF67
:100EA00007F055EF07F056EF07F00F80D890223685
:100EB00023362436253613501B5C14501C5815500D
:100EC0001D5816501E58D8A068EF07F06AEF07F0BB
:100ED00073EF07F0258C13501B5E14501C5A1550ED
:100EE0001D5A16501E5A272A190E27647AEF07F04A
:100EF0007CEF07F03CEF07F01B501C101D101E107C
:100F0000D8B485EF07F087EF07F09FEF07F0228056
:100F10009FEF07F0D8900F3610361136123625AEF7
:100F200094EF07F096EF07F097EF07F00F80D89057
:100F300022362336243625362006D8A0210611AEC7
:100F4000A4EF07F0A6EF07F08AEF07F0000E276E78
:100F500025AEADEF07F0AFEF07F0D3EF07F0FF0ED0
:100F60002214176EFF0E2314186EFF0E2414196E30
:100F70007F0E25141A6E1750181019101A10D8B4B5
:100F8000C4EF07F0C6EF07F0CAEF07F0010E276EB7
:100F9000D3EF07F00FA0CFEF07F0D1EF07F0D3EFBB
:100FA00007F0C6EF07F02750D8B4D9EF07F0DBEF12
:100FB00007F0FFEF07F0010E0F26000E102211229E
:100FC000122212A0E6EF07F0E8EF07F0FFEF07F0BC
:100FD0000FC017F010C018F011C019F012C01AF0AD
:100FE0001A341A3219321832173217C00FF018C0DB
:100FF00010F019C011F01AC012F0204A212A21BEA7
:101000000AEF08F0215008E12028D8A00AEF08F0E4
:101010000CEF08F017EF08F0000E216E2068000EAC
:101020000F6E000E106E000E116E000E126E21BEBD
:1010300024EF08F0215006E12004D8B022EF08F098
:1010400024EF08F032EF08F0000E216E000E206E43
:10105000000E0F6E000E106E000E116E000E126E5E
:10106000000E1F6E20C026F026A039EF08F03BEFDF
:1010700008F03EEF08F0118E3FEF08F0119ED89077
:101080002630126EF5EF06F0120042C0D9FF43C0C1
:10109000DAFFDECFF6FFDDCFF7FF0800F550250AB7
:1010A000D8A455EF08F057EF08F0D7EF09F042C089
:1010B000D9FF43C0DAFFDE2A000EDD22000E000158
:1010C000636F000E626F62C066F063C067F06469B0
:1010D0006569000E536E000E526EBAEF08F0000103
:1010E000668142C0D9FF43C0DAFFDE2A000EDD224E
:1010F000BAEF08F00001668371EF08F00001668521
:1011000071EF08F00001668771EF08F00001668951
:1011100071EF08F0000E536E010E526EBAEF08F038
:1011200042C0D9FF43C0DAFFDECFF6FFDDCFF7FFC5
:101130000800F550466E476A4750000AD8B4A3EF3E
:1011400008F08AEF08F04650200AD8B482EF08F081
:10115000030AD8B486EF08F0080AD8B47EEF08F086
:10116000060AD8B46FEF08F01D0AD8B47AEF08F079
:101170008AEF08F052505310D8B4C1EF08F0C3EF13
:1011800008F090EF08F0000166A1C9EF08F0CBEF7E
:1011900008F0CCEF08F0669342C0D9FF43C0DAFFF5
:1011A000DECFF6FFDDCFF7FF0800F5502A0AD8A4FE
:1011B000DCEF08F0DEEF08F007EF09F042C0D9FFDE
:1011C00043C0DAFFDE2A000EDD2244C0D9FF45C04D
:1011D000DAFFDFCF46F0020EDE26DFCF47F0000E4B
:1011E000DD2246C0D9FF47C0DAFFDECF62F0DDCF97
:1011F00063F063BF00EF09F0FEEF08F03DEF09F088
:101200006681626D631FD8B0632B3DEF09F042C069
:10121000D9FF43C0DAFFDECF08F0DDCF09F0B4EC30
:101220000DF008C062F009C063F01EEF09F042C083
:10123000D9FF43C0DAFFDE2A000EDD22D00E466E53
:10124000FF0E476E42C0D9FF43C0DAFFDECFF6FF84
:10125000DDCFF7FF0800F550486E496A4650482632
:1012600047504922495009E10A0E485CD8A03BEF9B
:1012700009F03DEF09F017EF09F042C0D9FF43C074
:10128000DAFFDECFF6FFDDCFF7FF0800F550640A86
:10129000D8B44DEF09F04FEF09F061EF09F042C00B
:1012A000D9FF43C0DAFFDECFF6FFDDCFF7FF08003E
:1012B000F550690AD8A45FEF09F061EF09F0A1EFDA
:1012C00009F042C0D9FF43C0DAFFDE2A000EDD225A
:1012D00044C0D9FF45C0DAFFDFCF46F0020EDE265C
:1012E000DFCF47F0000EDD2246C0D9FF47C0DAFF4E
:1012F000DECF4AF0DDCF4BF0000E4BBEFF0E4C6E42
:101300004D6E4E6E4F6E506E516E40C01CF041C01F
:101310001DF04AC01EF04BC01FF04CC020F04DC065
:1013200021F04EC022F04FC023F050C024F051C035
:1013300025F0F3EC09F01CC040F01DC041F0F2EFC5
:1013400009F042C0D9FF43C0DAFFDECFF6FFDDCFA0
:10135000F7FF0800F550250AD8A4B1EF09F0B3EF64
:1013600009F0CAEF09F042C0D9FF43C0DAFFDE2A14
:10137000000EDD22000E026E250E016E40C003F04D
:1013800041C004F0E2EC0EF0000E416E010E406E22
:10139000F2EF09F042C0D9FF43C0DAFFDE2A000EA7
:1013A000DD22000E416E000E406EF2EF09F042C0E9
:1013B000D9FF43C0DAFFDECFF6FFDDCFF7FF08002D
:1013C000F550016E026A40C003F041C004F0E2EC47
:1013D0000EF042C0D9FF43C0DAFFDE2A000EDD2244
:1013E000C4EF09F012001EC036F01FC037F020C055
:1013F00038F021C039F022C03AF023C03BF024C0BD
:101400003CF025C03DF03DBE08EF0AF00BEF0AF0BE
:10141000010E0CEF0AF0000E346E356A34503510B0
:10142000D8B415EF0AF017EF0AF027EF0AF03D1EC7
:101430003C1E3B1E3A1E391E381E371E366C000EEF
:101440003722382239223A223B223C223D22000117
:1014500065BF2DEF0AF02FEF0AF030EF0AF0669328
:1014600065BF3DEF0AF0655106E16405D8B03BEF7A
:101470000AF03DEF0AF043EF0AF0000E316E010E64
:10148000306E47EF0AF064C030F065C031F062C0E2
:1014900032F063C033F034503510D8A452EF0AF064
:1014A00054EF0AF05BEF0AF066A559EF0AF05BEF24
:1014B0000AF05EEF0AF03206D8A03306000E3F6E47
:1014C0001F0E3E6E000E876FE2EF0AF03E06D8A0B8
:1014D0003F06680E3E24D96E000E3F20DA6E36C0FD
:1014E00001F037C002F038C003F039C004F03AC050
:1014F00005F03BC006F03CC007F03DC008F00A0E06
:10150000096E000E0A6E000E0B6E000E0C6E000EC1
:101510000D6E000E0E6E000E0F6E000E106E02ECC1
:101520000DF001C026F002C027F003C028F004C06F
:1015300029F005C02AF006C02BF007C02CF008C027
:101540002DF026C013F028C014F013EC13F0135044
:10155000300FDF6E3006D8A031063206D8A0330631
:1015600036C001F037C002F038C003F039C004F0D3
:101570003AC005F03BC006F03CC007F03DC008F0A3
:101580000A0E096E000E0A6E000E0B6E000E0C6E37
:10159000000E0D6E000E0E6E000E0F6E000E106E21
:1015A0003EEC0CF001C036F002C037F003C038F05A
:1015B00004C039F005C03AF006C03BF007C03CF06B
:1015C00008C03DF03FBEEDEF0AF03F5008E13E0499
:1015D000D8A0EDEF0AF0EFEF0AF020EF0BF0365055
:1015E0003710381039103A103B103C103D10D8A479
:1015F000FCEF0AF0FEEF0AF066EF0AF031BE0BEFE7
:101600000BF0315006E13004D8B009EF0BF00BEFCE
:101610000BF066EF0AF033BE16EF0BF0335008E123
:101620003204D8A016EF0BF018EF0BF020EF0BF000
:10163000000166B31EEF0BF020EF0BF066EF0AF02F
:1016400034503510D8A427EF0BF029EF0BF031EF11
:101650000BF0000166A52FEF0BF031EF0BF04FEF11
:101660000BF03E06D8A03F0634503510D8A43BEF0F
:101670000BF03DEF0BF043EF0BF0000E2F6E2B0E37
:101680002E6E47EF0BF0000E2F6E2D0E2E6E680E95
:101690003E24D96E000E3F20DA6E2EC0DFFF1CC044
:1016A00011F01DC012F0680E3E24136E000E3F2094
:1016B000146E32C015F033C016F047EC0FF011C0B5
:1016C0001CF012C01DF01200096E0950D8B46BEF67
:1016D0000BF06DEF0BF08FEF0BF004BE74EF0BF01F
:1016E00072EF0BF08FEF0BF001C005F002C006F0B7
:1016F00003C007F004C008F0051E061E071E081EE2
:10170000052A000E06220722082205C00BF006C09B
:101710000CF007C00DF008C00EF097EF0BF001C001
:101720000BF002C00CF003C00DF004C00EF001502D
:10173000021003100410D8A4A0EF0BF0A2EF0BF0DE
:10174000ACEF0BF0000E016E000E026E000E036E89
:10175000000E046E3DEF0CF0960E0A6EB6EF0BF025
:101760000A2AD8900E320D320C320B32000E0B14B6
:10177000056E000E0C14066E000E0D14076EFE0EA4
:101780000E14086E0550061007100810D8A4CBEFF1
:101790000BF0CDEF0BF0B0EF0BF0DBEF0BF00A2A04
:1017A000010E0B26000E0C220D220E22D8900E32B6
:1017B0000D320C320B32000E0B14056E000E0C14A1
:1017C000066E000E0D14076EFF0E0E14086E055007
:1017D000061007100810D8A4F0EF0BF0F2EF0BF092
:1017E000CFEF0BF0FAEF0BF00A06D8900B360C3661
:1017F0000D360E360DBEFFEF0BF001EF0CF009EFCA
:101800000CF0020E0A6007EF0CF009EF0CF0F4EF99
:101810000BF00AB00EEF0CF010EF0CF011EF0CF023
:101820000D9ED8900A320AC005F0066A076A086A57
:1018300005C008F0076A066A056A05500B120650D3
:101840000C1207500D1208500E120950D8B42BEF8D
:101850000CF02DEF0CF035EF0CF004BE34EF0CF073
:1018600032EF0CF035EF0CF00E8E0BC001F00CC017
:1018700002F00DC003F00EC004F01200000E126E54
:1018800010BE47EF0CF045EF0CF059EF0CF0101EB6
:101890000F1E0E1E0D1E0C1E0B1E0A1E096C000EC6
:1018A0000A220B220C220D220E220F221022010EE0
:1018B000126E08BE60EF0CF05EEF0CF072EF0CF0F1
:1018C000081E071E061E051E041E031E021E016CB6
:1018D000000E0222032204220522062207220822E9
:1018E000010E121A20EE13F0070EDE6AE806FDE282
:1018F00009500A100B100C100D100E100F101010C4
:10190000D8B485EF0CF087EF0CF0D9EF0CF0010E96
:10191000116E95EF0CF0D89009360A360B360C365E
:101920000D360E360F361036112A10AE9AEF0CF027
:101930009CEF0CF08BEF0CF0D89013361436153664
:1019400016361736183619361A360950015C0A5001
:1019500002580B5003580C5004580D5005580E50A7
:1019600006580F50075810500858D8A0BAEF0CF07E
:10197000BCEF0CF0CDEF0CF00950015E0A50025A9A
:101980000B50035A0C50045A0D50055A0E50065A6B
:101990000F50075A1050085A1380D89010320F3247
:1019A0000E320D320C320B320A320932112E9CEFFC
:1019B0000CF01250D8B4DFEF0CF0E1EF0CF0F1EFC7
:1019C0000CF01A1E191E181E171E161E151E141EA8
:1019D000136C000E14221522162217221822192227
:1019E0001A2213C001F014C002F015C003F016C093
:1019F00004F017C005F018C006F019C007F01AC0AF
:101A000008F01200000E126E08BE0BEF0DF009EF89
:101A10000DF01DEF0DF0081E071E061E051E041E0C
:101A2000031E021E016C000E022203220422052264
:101A3000062207220822010E126E10BE24EF0DF0BE
:101A400022EF0DF034EF0DF0101E0F1E0E1E0D1EB6
:101A50000C1E0B1E0A1E096C000E0A220B220C2201
:101A60000D220E220F22102209500A100B100C100A
:101A70000D100E100F101010D8B441EF0DF043EF01
:101A80000DF08BEF0DF0010E116E51EF0DF0D890AF
:101A900009360A360B360C360D360E360F36103632
:101AA000112A10AE56EF0DF058EF0DF047EF0DF084
:101AB0000950015C0A5002580B5003580C5004584E
:101AC0000D5005580E5006580F5007581050085822
:101AD000D8A06DEF0DF06FEF0DF07FEF0DF0095016
:101AE000015E0A50025A0B50035A0C50045A0D5012
:101AF000055A0E50065A0F50075A1050085AD890DF
:101B000010320F320E320D320C320B320A320932E1
:101B1000112E58EF0DF01250D8B491EF0DF093EF55
:101B20000DF0A3EF0DF0081E071E061E051E041E75
:101B3000031E021E016C000E022203220422052253
:101B400006220722082201C001F002C002F003C0F1
:101B500003F004C004F005C005F006C006F007C09D
:101B600007F008C008F01200000E116E000E106E93
:101B7000000E0F6E000E0E6EC0EF0DF0084A092A1F
:101B800008C0F6FF09C0F7FF0800F550200AD8B4D6
:101B9000CCEF0DF0CEEF0DF0BEEF0DF0F70E0A6EAC
:101BA000FF0E0B6E08C0F6FF09C0F7FF0800F550E6
:101BB0000C6E0D6A0A500C260B500D220D5009E1D7
:101BC000050E0C5CD8A0E7EF0DF0E9EF0DF0BEEFCD
:101BD0000DF0F3EF0DF0000E0F6E010E0E6E084AC1
:101BE000092A28EF0EF008C0F6FF09C0F7FF080029
:101BF000F5500A6E0B6A0B50000AD8B402EF0EF0D3
:101C000028EF0EF00A502B0AD8B4EFEF0DF0060AB9
:101C1000D8B4EBEF0DF028EF0EF010C001F011C0BA
:101C200002F0000E046E0A0E036EBBEC13F008C047
:101C3000F6FF09C0F7FF0800F550015E000E025ADA
:101C4000300E0124106E000E0220116EEFEF0DF029
:101C5000D00E0A6EFF0E0B6E08C0F6FF09C0F7FF2C
:101C60000800F5500C6E0D6A0A500C260B500D2220
:101C70000D5009E10A0E0C5CD8A041EF0EF043EFC5
:101C80000EF00DEF0EF00E500F10D8A44AEF0EF02C
:101C90004CEF0EF05AEF0EF010C00AF011C00BF02E
:101CA0000A1E0B1E0A4A0B2A0AC008F00BC009F0D4
:101CB0005EEF0EF010C008F011C009F012000334FE
:101CC00004340A6E0A50D8A468EF0EF06AEF0EF0E2
:101CD00074EF0EF0000E016E000E026E000E036E29
:101CE000000E046EE1EF0EF001C005F002C006F038
:101CF00003C007F004C008F0200E84EF0EF0D89067
:101D00000832073206320532E82E7FEF0EF005501A
:101D1000096E038EFF0E0116FF0E0216FF0E03164C
:101D2000000E0416960E0A5E0ABE9BEF0EF099EFA7
:101D30000EF0B1EF0EF00A50800A970FD8B0A3EF63
:101D40000EF0A5EF0EF0A7EF0EF06AEF0EF0D890B0
:101D500004320332023201320A3EA7EF0EF0C9EF1D
:101D60000EF01F0E0A64B7EF0EF0B9EF0EF0C1EFE0
:101D70000EF06AEF0EF0D8900136023603360436C4
:101D80000A060A50D8A4C7EF0EF0C9EF0EF0BBEF59
:101D90000EF00950D8B4CFEF0EF0D1EF0EF0D9EF1E
:101DA0000EF0041E031E021E016C000E022203220E
:101DB000042201C001F002C002F003C003F004C01D
:101DC00004F0120003500410D8B4E9EF0EF0EBEF6A
:101DD0000EF0F4EF0EF003500410D8A4F2EF0EF062
:101DE000F4EF0EF0F9EF0EF001500FEC14F046EFA7
:101DF0000FF020EE09F00350D9260450DA22DE500D
:101E0000DE10D8B406EF0FF008EF0FF023EF0FF05D
:101E100020EE09F00350D9260450DA2210EE03F028
:101E20000350E1260450E222DE50E65CE650800AD0
:101E3000096EDE50800A0958D8B021EF0FF023EF69
:101E40000FF046EF0FF020EE03F00350D9260450B8
:101E5000DA22DECF05F0DDCF06F003C0D9FF04C0E3
:101E6000DAFFDECF07F0DDCF08F005500724D96E8A
:101E700006500820DA6E01C0DFFF20EE03F00350A9
:101E8000D9260450DA22DE2A000EDD2212000001DB
:101E900066A14DEF0FF04FEF0FF059EF0FF013C0A9
:101EA0000AF014C00BF011C00CF012C00DF0F1ECF0
:101EB00012F016BE5EEF0FF060EF0FF066EF0FF05E
:101EC00015C01AF016C01BF06AEF0FF0000E1B6E63
:101ED000000E1A6E000E196E000E186E7CEF0FF0D9
:101EE000000E026E200E016E11C003F012C004F04D
:101EF000E2EC0EF0184A192A1A50185C1950800AA0
:101F0000176E1B50800A1758D8A089EF0FF08BEF7F
:101F10000FF070EF0FF0000166B191EF0FF093EF4B
:101F20000FF09DEF0FF013C00AF014C00BF011C0BA
:101F30000CF012C00DF0F1EC12F013C001F014C05F
:101F400002F06BEC13F01A500124116E1B500220AA
:101F5000126E1200000E956E8C80BCC05CF0BDC08D
:101F60005DF06CEC11F0130E0001BB6F2D0EE82E2E
:101F7000FED7BB2FFCD780A4C0EF0FF0C2EF0FF04D
:101F8000C9EF0FF08C88260E026E080E036E86ECE9
:101F900013F072EC12F08C9083B0D1EF0FF0D3EF0E
:101FA0000FF0E8EF0FF08C82BCC05CF0BDC05DF0BC
:101FB0006CEC11F08C98280E026E080E036E86EC05
:101FC00013F08C92000E136E000E126E08EC10F0DF
:101FD00083B2EDEF0FF0EFEF0FF007EF10F08C840E
:101FE000BCC05CF0BDC05DF06CEC11F0000E136E77
:101FF000010E126E08EC10F08C948C822A0E026E88
:10200000080E036E86EC13F0DEEC13F08C921200D7
:1020100092848C9680A40FEF10F011EF10F045EF32
:1020200010F083A416EF10F018EF10F045EF10F049
:102030008C86AAEC10F008C014F009C015F01550F9
:1020400009E1280E145CD8A028EF10F02AEF10F058
:102050003BEF10F07D0E145C010E1558D8B033EF35
:1020600010F035EF10F03BEF10F02C0E026E080E62
:10207000036E86EC13F072EC12F08C968C94000ECA
:10208000136E020E126E46EF10F08C961250131063
:10209000D8A44DEF10F04FEF10F052EF10F08C84F9
:1020A0005FEF10F0020E12181310D8B45AEF10F0B0
:1020B0005CEF10F05FEF10F08C8472EC12F0120005
:1020C000949C948E38C001F039C002F03AC003F0FD
:1020D0003BC004F0010E64EC0BF001C013F002C031
:1020E00014F003C015F004C016F0000E0F6E240E9D
:1020F000106EF40E116E470E126E78EC06F00FC0E3
:1021000028F010C029F011C02AF012C02BF0000EE8
:102110002C6E000E2D6E800E2E6EBF0E2F6E18ECE4
:1021200004F028C03CF029C03DF02AC03EF02BC08E
:102130003FF03CC001F03DC002F03EC003F03FC0A4
:1021400004F05FEC0EF00150AF6E200EAC6E900EFE
:10215000AB6E12008980060EE82EFED700D0899063
:1021600080A2B5EF10F0B7EF10F0B0EF10F0CD8017
:1021700080B2BDEF10F0BFEF10F0B8EF10F0CD90CF
:10218000CECF0CF0CFCF0DF0D8900D300A6E0C30C2
:10219000106E0AC011F0A10E105C5A0E1158D8B082
:1021A000D4EF10F0D6EF10F0E6EF10F010C001F011
:1021B00011C002F0000E046E3A0E036EA6EC11F090
:1021C00001C00EF002C00FF0EAEF10F0000E0F6E2B
:1021D000000E0E6E000ECF6E000ECE6E0EC008F01A
:1021E0000FC009F01200000E0A6E000E096E13EF08
:1021F00011F009500524076E0A500620086E07C02A
:10220000F6FF08C0F7FFF86A070EF76403D008006E
:10221000F55005D0F6CFE1FFF7CFE2FFE7504FECE6
:1022200013F0094A0A2A09500524076E0A500620AD
:10223000086E07C0F6FF08C0F7FFF86A070EF764DC
:1022400003D00800F55005D0F6CFE1FFF7CFE2FF4D
:10225000E7500009D8A42FEF11F031EF11F0F9EF9A
:1022600010F01200000E936E000E44EC12F0340ECB
:10227000046EF20EE82EFED7042EFCD7030ECEEC31
:1022800013F00D0E046EFC0EE82EFED7042EFCD7C4
:10229000030ECEEC13F01D0E046E910EE82EFED749
:1022A000042EFCD700F0030ECEEC13F0020ECEECA1
:1022B00013F0020ECEEC13F0080ECEEC13F0000E6D
:1022C000CEEC13F00C0ECEEC13F0000ECEEC13F0AF
:1022D000060ECEEC13F01200AAEC10F008C05CF071
:1022E00009C05DF0010E046E010EE0EC11F0010E6C
:1022F000056E080E066EF3EC10F0880E0001A86F54
:10230000000EA96F140EAA6F080EAB6F010E5C24AD
:10231000AC6F000E5D20AD6F9FEC12F0010E046EED
:10232000020EE0EC11F0880E056E000E066EF3EC66
:1023300010F0030E5F6E080E5E6E770EE82EFED76D
:102340005E2EFCD75F2EFAD700F01200000E066E4C
:10235000000E056E03500410D8B4B1EF11F0B3EFC6
:1023600011F0DBEF11F0010E076EBBEF11F0D8900A
:1023700003360436072A04AEC0EF11F0C2EF11F0A5
:10238000B7EF11F0D890053606360350015C0450C3
:102390000258D8A0CEEF11F0D0EF11F0D5EF11F028
:1023A0000350015E0450025A0580D8900432033273
:1023B000072EC2EF11F005C001F006C002F01200B6
:1023C000056E0504D8A4E7EF11F0E9EF11F0FAEF7C
:1023D00011F004507F0F086E08380F0B066E08507E
:1023E0000F0B076E0650CEEC13F00750CEEC13F037
:1023F00012EF12F0020E0518D8A401EF12F003EF4D
:1024000012F012EF12F00450BF0F086E08380F0BD5
:10241000066E08500F0B076E0650CEEC13F00750F7
:10242000CEEC13F0120056C05AF057C05BF0000E0D
:102430000001616F000E606F31EF12F054C040F088
:1024400055C041F05A0E426E000E436E58C044F023
:1024500059C045F045EC08F040500001602741505C
:1024600061235AC0F6FF5BC0F7FF0800F550000972
:10247000D8A43DEF12F03FEF12F01EEF12F060C053
:1024800054F061C055F01200016E01A04AEF12F045
:102490004CEF12F04FEF12F0818850EF12F081985C
:1024A00001A255EF12F057EF12F05AEF12F0818AA5
:1024B0005BEF12F0819A01A460EF12F062EF12F06C
:1024C00065EF12F0818C66EF12F0819C01A66BEF34
:1024D00012F06DEF12F070EF12F0818E71EF12F0CA
:1024E000819E12000B0E026E260E016E5E0EE82E0D
:1024F000FED7012EFCD7022EFAD70B0E026E260E47
:10250000016E5E0EE82EFED7012EFCD7022EFAD702
:102510000B0E026E260E016E5E0EE82EFED7012E09
:10252000FCD7022EFAD70B0E026E260E016E5E0E3F
:10253000E82EFED7012EFCD7022EFAD71200AC0EE1
:102540000001AE6F000EAF6FA8C0B0F0A9C0B1F02F
:10255000000EB46F000EB36F000EBA6F000EB96FAD
:10256000B00E546E000E556EAAC056F0ABC057F0B8
:10257000AE0E586E000E596E13EC12F00001B351FE
:10258000A825D96EB451A921DA6E000EDF6E1200B3
:10259000010E076E200E01180210D8B4D2EF12F00F
:1025A000D4EF12F0EDEF12F0F70E036EFF0E046E93
:1025B00001C005F002C006F00350052604500622B3
:1025C000065009E1050E055CD8A0E9EF12F0EBEF2B
:1025D00012F0EDEF12F0000E076E07C001F0026A74
:1025E0001200000E106E000E0F6E02EF13F00EC000
:1025F00001F0026A0CC003F00DC004F0E2EC0EF032
:102600000F4A102A0F500A24D96E10500B20DA6E90
:10261000DF500E6E0E50D8A410EF13F012EF13F02F
:10262000F7EF12F0120014BE20EF13F0145006E181
:102630001304D8B01EEF13F020EF13F02EEF13F0B9
:1026400013C015F014C016F0151E161E154A162AD2
:1026500015C013F016C014F032EF13F013C013F0CE
:1026600014C014F01200D00E036EFF0E046E01C0F1
:1026700005F002C006F0035005260450062206505D
:102680000AE10A0E055CD8A048EF13F04BEF13F0F7
:10269000010E4CEF13F0000E016E026A1200046E80
:1026A00004500F0B026E0450F00B036E818403384C
:1026B0000F0B44EC12F081861A0EE82EFED700D0E4
:1026C0008196025044EC12F081861A0EE82EFED755
:1026D00000D08196120001C003F002C004F073EF35
:1026E00013F0014A022A01C0D9FF02C0DAFFDF500D
:1026F000D8A47DEF13F07FEF13F071EF13F00350C8
:10270000015C016E04500258026E120092EF13F049
:1027100002C0F6FF03C0F7FF0800F550F5EC13F018
:10272000024A032A02C0F6FF03C0F7FF0800F55073
:102730000009D8A49EEF13F0A0EF13F088EF13F078
:102740001200720ED36E0F0EC16E800E386E250E03
:10275000396E000E3A6E000E3B6E60EC10F00AEC23
:1027600014F000EC14F032EC11F0AAEC0FF0B5EF1D
:1027700013F000EF00F001500302F3CF05F0F4CFA7
:1027800006F001500402F350062602500302F350F3
:10279000062605C001F006C002F01200036E819407
:1027A000035044EC12F081860B0E026E620EE82E8E
:1027B000FED7022EFCD700D081961200060E026EC4
:1027C000130E016EAE0EE82EFED7012EFCD7022EA0
:1027D000FAD7120000EE60F0480EEE6AE806FDE15E
:1027E000000EF86E0001A1EF13F0016E9EA8FBEF42
:1027F00013F0FDEF13F0F6EF13F001C0ADFF120080
:10280000CD8ECF0ECD16CD92000ECF6E000ECE6EB9
:10281000CD9012000F0EC1129290928212001200FF
:020000040020DA
:08000000FFFFFFFFFFFFFFFF00
:020000040030CA
:0E000000000A1F1EFF8385FF0FC00FE00F4098
:00000001FF
