:04000000C8EF39F01C
:10739000000128EF3AF09EAAD0EF39F0D2EF39F091
:1073A000CBEF39F0ABA2D7EF39F0D9EF39F0DCEF02
:1073B00039F0AB9800F0AB88AE501200949C948EDC
:1073C00038C001F039C002F03AC003F03BC004F00D
:1073D000010EF9EC3AF001C013F002C014F003C042
:1073E00015F004C016F0000E0F6E240E106EF40E91
:1073F000116E470E126ED3EC3BF00FC028F010C098
:1074000029F011C02AF012C02BF0000E2C6E000ED5
:107410002D6E800E2E6EBF0E2F6EA0EC3DF028C09C
:107420003CF029C03DF02AC03EF02BC03FF03CC0EC
:1074300001F03DC002F03EC003F03FC004F076EC26
:107440003AF00150AF6E200EAC6E900EAB6E120093
:10745000720ED36E0F0EC16E000E956E800E386EDA
:10746000250E396E000E3A6E000E3B6EDEEC39F0E2
:1074700093909392939ECBEC39F0456E410E451854
:10748000D8A445EF3AF047EF3AF04CEF3AF08A8E45
:107490008A828A943BEF3AF0440E4518D8A453EF01
:1074A0003AF055EF3AF05AEF3AF08A9E8A928A946F
:1074B0003BEF3AF0550E4518D8A461EF3AF063EF70
:1074C0003AF066EF3AF08C883BEF3AF0530E4518ED
:1074D000D8A46DEF3AF06FEF3AF072EF3AF08C9873
:1074E0003BEF3AF03BEF3AF000EF00F003340434A6
:1074F0000A6E0A50D8A47FEF3AF081EF3AF08BEF92
:107500003AF0000E016E000E026E000E036E000EC9
:10751000046EF8EF3AF001C005F002C006F003C0B7
:1075200007F004C008F0200E9BEF3AF0D890083224
:10753000073206320532E82E96EF3AF00550096E12
:10754000038EFF0E0116FF0E0216FF0E0316000E2D
:107550000416960E0A5E0ABEB2EF3AF0B0EF3AF0A9
:10756000C8EF3AF00A50800A970FD8B0BAEF3AF055
:10757000BCEF3AF0BEEF3AF081EF3AF0D890043227
:107580000332023201320A3EBEEF3AF0E0EF3AF047
:107590001F0E0A64CEEF3AF0D0EF3AF0D8EF3AF08F
:1075A00081EF3AF0D89001360236033604360A06E7
:1075B0000A50D8A4DEEF3AF0E0EF3AF0D2EF3AF01A
:1075C0000950D8B4E6EF3AF0E8EF3AF0F0EF3AF0CD
:1075D000041E031E021E016C000E0222032204225E
:1075E00001C001F002C002F003C003F004C004F0C7
:1075F0001200096E0950D8B400EF3BF002EF3BF0E7
:1076000024EF3BF004BE09EF3BF007EF3BF024EF23
:107610003BF001C005F002C006F003C007F004C053
:1076200008F0051E061E071E081E052A000E06226B
:107630000722082205C00BF006C00CF007C00DF0B1
:1076400008C00EF02CEF3BF001C00BF002C00CF0B4
:1076500003C00DF004C00EF001500210031004101E
:10766000D8A435EF3BF037EF3BF041EF3BF0000E95
:10767000016E000E026E000E036E000E046ED2EF5D
:107680003BF0960E0A6E4BEF3BF00A2AD8900E3272
:107690000D320C320B32000E0B14056E000E0C1462
:1076A000066E000E0D14076EFE0E0E14086E0550C9
:1076B000061007100810D8A460EF3BF062EF3BF013
:1076C00045EF3BF070EF3BF00A2A010E0B26000E4F
:1076D0000C220D220E22D8900E320D320C320B32BB
:1076E000000E0B14056E000E0C14066E000E0D1429
:1076F000076EFF0E0E14086E0550061007100810D6
:10770000D8A485EF3BF087EF3BF064EF3BF08FEFC1
:107710003BF00A06D8900B360C360D360E360DBEF1
:1077200094EF3BF096EF3BF09EEF3BF0020E0A60C9
:107730009CEF3BF09EEF3BF089EF3BF00AB0A3EFEC
:107740003BF0A5EF3BF0A6EF3BF00D9ED8900A3240
:107750000AC005F0066A076A086A05C008F0076AE9
:10776000066A056A05500B1206500C1207500D12DE
:1077700008500E120950D8B4C0EF3BF0C2EF3BF0F6
:10778000CAEF3BF004BEC9EF3BF0C7EF3BF0CAEFD6
:107790003BF00E8E0BC001F00CC002F00DC003F0E8
:1077A0000EC004F012001250800B1F6E12501224F3
:1077B000266E11AEDEEF3BF0E0EF3BF0E1EF3BF089
:1077C00026802650D8B4E7EF3BF0E9EF3BF0FEEF20
:1077D0003BF02628D8A4EFEF3BF0F1EF3BF0F9EFB8
:1077E0003BF0000E0F6E000E106E000E116E000EBC
:1077F000126E118E000E126E06EF3CF0000E0F6E30
:10780000000E106E000E116E000E126E1650800BE0
:107810001F1A16501624276E15AE11EF3CF013EF09
:107820003CF014EF3CF027802750D8B41AEF3CF01E
:107830001CEF3CF031EF3CF02728D8A422EF3CF0BD
:1078400024EF3CF02CEF3CF0000E136E000E146E93
:10785000000E156E000E166E158E000E166E39EFA8
:107860003CF0000E136E000E146E000E156E000E2E
:10787000166E1350141015101610D8A442EF3CF0D9
:1078800044EF3CF05CEF3CF0000E0F6E000E106E0B
:10789000000E116E000E126E800E11127F0E12126B
:1078A0001F5012120FC00FF010C010F011C011F0D5
:1078B00012C012F09FEF3DF02650D8A462EF3CF0CA
:1078C00064EF3CF06EEF3CF0000E0F6E000E106E99
:1078D000000E116E000E126E9FEF3DF0275026C075
:1078E00017F0186A175E000E185A7F0E1724206EC4
:1078F000000E1820216E0FC01BF010C01CF011C02C
:107900001DF012C01EF0000E0F6E000E106E000E65
:10791000116E000E126E000E226E000E236E000E0F
:10792000246E000E256E000E276ECFEF3CF0275020
:10793000D8B49DEF3CF09FEF3CF0B6EF3CF0D89010
:107940001B361C361D361E36D8900F3610361136B3
:10795000123625AEAEEF3CF0B0EF3CF0B1EF3CF0AC
:107960000F80D890223623362436253613501B5CE0
:1079700014501C5815501D5816501E58D8A0C3EF4F
:107980003CF0C5EF3CF0CEEF3CF0258C13501B5E75
:1079900014501C5A15501D5A16501E5A272A190EDB
:1079A0002764D5EF3CF0D7EF3CF097EF3CF01B504D
:1079B0001C101D101E10D8B4E0EF3CF0E2EF3CF0BC
:1079C000FAEF3CF02280FAEF3CF0D8900F361036F8
:1079D0001136123625AEEFEF3CF0F1EF3CF0F2EF4E
:1079E0003CF00F80D89022362336243625362006E8
:1079F000D8A0210611AEFFEF3CF001EF3DF0E5EF1E
:107A00003CF0000E276E25AE08EF3DF00AEF3DF08A
:107A10002EEF3DF0FF0E2214176EFF0E2314186E8A
:107A2000FF0E2414196E7F0E25141A6E17501810AD
:107A300019101A10D8B41FEF3DF021EF3DF025EFDB
:107A40003DF0010E276E2EEF3DF00FA02AEF3DF026
:107A50002CEF3DF02EEF3DF021EF3DF02750D8B454
:107A600034EF3DF036EF3DF05AEF3DF0010E0F26BA
:107A7000000E10221122122212A041EF3DF043EF1E
:107A80003DF05AEF3DF00FC017F010C018F011C0D4
:107A900019F012C01AF01A341A3219321832173289
:107AA00017C00FF018C010F019C011F01AC012F072
:107AB000204A212A21BE65EF3DF0215008E120280F
:107AC000D8A065EF3DF067EF3DF072EF3DF0000E9E
:107AD000216E2068000E0F6E000E106E000E116EEB
:107AE000000E126E21BE7FEF3DF0215006E1200412
:107AF000D8B07DEF3DF07FEF3DF08DEF3DF0000E13
:107B0000216E000E206E000E0F6E000E106E000E25
:107B1000116E000E126E000E1F6E20C026F026A001
:107B200094EF3DF096EF3DF099EF3DF0118E9AEF16
:107B30003DF0119ED8902630126E50EF3CF01200AE
:107B40002B50800B346E2B502B24366E2AAEABEFAD
:107B50003DF0ADEF3DF0AEEF3DF036803650D8B49D
:107B6000B4EF3DF0B6EF3DF0CBEF3DF03628D8A4B2
:107B7000BCEF3DF0BEEF3DF0C6EF3DF0000E286ECD
:107B8000000E296E000E2A6E000E2B6E2A8E000E3D
:107B90002B6ED3EF3DF0000E286E000E296E000E06
:107BA0002A6E000E2B6E2F50800B356E3450351818
:107BB000D8B4DDEF3DF0DFEF3DF0E0EF3DF0348C89
:107BC0002F502F24356E2EAEE8EF3DF0EAEF3DF05A
:107BD000EBEF3DF035803550D8B4F1EF3DF0F3EFE9
:107BE0003DF008EF3EF03528D8A4F9EF3DF0FBEF6B
:107BF0003DF003EF3EF0000E2C6E000E2D6E000ED9
:107C00002E6E000E2F6E2E8E000E2F6E10EF3EF099
:107C1000000E2C6E000E2D6E000E2E6E000E2F6EBE
:107C20003650355CD8B017EF3EF019EF3EF040EF1C
:107C30003EF034AC1EEF3EF020EF3EF022EF3EF07F
:107C4000800E341A36C037F035C036F037C035F004
:107C500028C037F02CC028F037C02CF029C037F0EE
:107C60002DC029F037C02DF02AC037F02EC02AF0E1
:107C700037C02EF02BC037F02FC02BF037C02FF0BD
:107C8000000E376E365035C030F0316A305E000E6F
:107C9000315A31BE55EF3EF0315009E11A0E305CD9
:107CA000D8A055EF3EF057EF3EF08EEF3EF0285053
:107CB00029102A102B10D8A460EF3EF063EF3EF09D
:107CC000010E64EF3EF0000E376E000E286E000EBF
:107CD000296E000E2A6E000E2B6E35C036F097EF1F
:107CE0003EF037A076EF3EF078EF3EF07EEF3EF0CC
:107CF000D89037300109376E80EF3EF0D890373298
:107D000028A085EF3EF087EF3EF088EF3EF0378EFB
:107D10002B342B322A3229322832362A3550365C1F
:107D2000D8A095EF3EF097EF3EF071EF3EF034BCF7
:107D30009CEF3EF09EEF3EF0DEEF3EF03650D8A4D2
:107D4000A4EF3EF0A6EF3EF0B0EF3EF0000E286E3E
:107D5000000E296E000E2A6E000E2B6EFFEF3FF014
:107D60002C5028262D5029222E502A222F502B22EB
:107D70002BA0BDEF3EF0BFEF3EF06BEF3FF037A022
:107D8000C4EF3EF0C6EF3EF0CCEF3EF0D890373077
:107D90000109376ECEEF3EF0D890373228A0D3EFEE
:107DA0003EF0D5EF3EF0D6EF3EF0378E2B342B323F
:107DB0002A3229322832362A6BEF3FF02C50285CC9
:107DC0002D5029582E502A582B50800A306E2F5093
:107DD000800A3058D8B0EFEF3EF0F1EF3EF01CEFE4
:107DE0003FF028502C5C306E29502D58316E2A50AF
:107DF0002E58326E2B502F58336EFF0E3024286EC3
:107E0000FF0E3120296EFF0E32202A6EFF0E332026
:107E10002B6E800E341A376C3750D8A412EF3FF017
:107E200014EF3FF024EF3FF0010E2826000E292228
:107E30002A222B2224EF3FF02C50285E2D50295A65
:107E40002E502A5A2F502B5A285029102A102B1006
:107E5000D8A42DEF3FF02FEF3FF064EF3FF0375005
:107E6000D8A435EF3FF037EF3FF064EF3FF0000E5E
:107E7000286E000E296E000E2A6E000E2B6EFFEF8C
:107E80003FF0D890283629362A362B3637AE4BEFBE
:107E90003FF04DEF3FF04EEF3FF0288037A053EF1B
:107EA0003FF055EF3FF059EF3FF0D88037365BEFAA
:107EB0003FF0D89037363650D8B461EF3FF063EFDB
:107EC0003FF064EF3FF036062AAE69EF3FF06BEF0C
:107ED0003FF041EF3FF0000E356E37AE72EF3FF0EE
:107EE00074EF3FF08CEF3FF037C030F07F0E30166C
:107EF000D8B47DEF3FF07FEF3FF083EF3FF0010E0E
:107F0000356E8CEF3FF028A088EF3FF08AEF3FF00E
:107F10008CEF3FF07FEF3FF03550D8B492EF3FF059
:107F200094EF3FF0BFEF3FF0010E2826000E29220C
:107F30002A222B222BA09FEF3FF0A1EF3FF0BFEFB3
:107F40003FF028C030F029C031F02AC032F02BC0F9
:107F500033F03334333232323132303230C028F001
:107F600031C029F032C02AF033C02BF03628D8B403
:107F7000BCEF3FF0BEEF3FF0BFEF3FF0362A3628B0
:107F8000D8B4C5EF3FF0C7EF3FF0CFEF3FF036502A
:107F9000D8A4CDEF3FF0CFEF3FF0E1EF3FF0000E80
:107FA000286E000E296E000E2A6E000E2B6E3650C3
:107FB000D8A4DDEF3FF0DFEF3FF0E1EF3FF0000E40
:107FC000346E36A0E6EF3FF0E8EF3FF0EBEF3FF026
:107FD0002A8EECEF3FF02A9ED89036302B6E34AECE
:107FE000F4EF3FF0F6EF3FF0F7EF3FF02B8E28C0B5
:107FF00028F029C029F02AC02AF02BC02BF012004B
:020000040020DA
:08000000FFFFFFFFFFFFFFFF00
:020000040030CA
:0E0000000008181EFF0181FF0FC00FE00F4027
:00000001FF
